{
  "contractName": "HelloWorld",
  "abi": [
    {
      "constant": true,
      "inputs": [],
      "name": "sayHello",
      "outputs": [
        {
          "internalType": "string",
          "name": "",
          "type": "string"
        }
      ],
      "payable": false,
      "stateMutability": "view",
      "type": "function"
    }
  ],
  "bytecode": "0x608060405234801561001057600080fd5b5061011d806100206000396000f3fe6080604052348015600f57600080fd5b506004361060285760003560e01c8063ef5fb05b14602d575b600080fd5b603360ab565b6040518080602001828103825283818151815260200191508051906020019080838360005b8381101560715780820151818401526020810190506058565b50505050905090810190601f168015609d5780820380516001836020036101000a031916815260200191505b509250505060405180910390f35b60606040518060400160405280600b81526020017f68656c6c6f20776f726c6400000000000000000000000000000000000000000081525090509056fea265627a7a723158209abba12efaa22bfcf84da57c0f207643a944981260c22808c9c066b8eff3b4bf64736f6c63430005100032",
  "source": "pragma solidity ^0.5.16;\ncontract HelloWorld {\n    function sayHello() public view returns(string memory){\n        return(\"hello world\");\n    }\n}\n",
  "sourcePath": "/Users/hpower/Desktop/projs/AmorealTest/Amoreal/src/frontend/truf/contracts/HelloWorld.sol",
  "compiler": {
    "name": "solc",
    "version": "0.5.16+commit.9c3226ce.Emscripten.clang"
  },
  "schemaVersion": "3.2.3",
  "updatedAt": "2020-08-01T11:27:27.116Z",
  "devdoc": {
    "methods": {}
  },
  "userdoc": {
    "methods": {}
  }
}